:100000000C942A000C9434000C9434000C943400AA
:100010000C9434000C9434000C9434000C94340090
:100020000C9434000C9434000C9434000C94340080
:100030000C9434000C9434000C9434000C94340070
:100040000C9434000C9434000C9434000C94340060
:100050000C94340011241FBECFE5D8E0DEBFCDBF25
:100060000E9490010C94AD020C9400000E94C60006
:1000700008958DE60E941601FCCF41E061E485E021
:100080000E94220283E08A95F1F7000040E061E4DB
:1000900085E00E9422020895CF93C82F40E061E4DA
:1000A00087E00E94220240E061E486E00E94220292
:1000B000CC2334F441E061E480E00E94220205C0D8
:1000C00041E061E480E00E942202C6FF06C041E0F8
:1000D00061E481E00E94220205C041E061E481E028
:1000E0000E942202C5FF06C041E061E482E00E9456
:1000F000220205C041E061E482E00E942202C4FFC6
:1001000006C041E061E483E00E94220205C041E0B4
:1001100061E483E00E9422020E943D00C3FF06C00A
:1001200041E061E480E00E94220205C041E061E418
:1001300080E00E942202C2FF06C041E061E481E04B
:100140000E94220205C041E061E481E00E94220297
:10015000C1FF06C041E061E482E00E94220205C0C6
:1001600041E061E482E00E942202C0FF06C041E05B
:1001700061E483E00E94220205C041E061E483E083
:100180000E9422020E943D00CF9108958DE292E2EA
:100190000197F1F700C0000082E00E944C0088E067
:1001A0000E944C009DE09A95F1F7000080E00E94CB
:1001B0004C008FE00E944C008DE08A95F1F7000022
:1001C00080E00E944C0081E00E944C0083EF91E0AF
:1001D0000197F1F700C0000080E00E944C0086E02B
:1001E0000E944C0041E061E485E00E94970141E0FB
:1001F00061E487E00E94970141E061E486E00E94AB
:10020000970141E061E480E00E94970141E061E4F0
:1002100081E00E94970141E061E482E00E94970141
:1002200041E061E483E00E9497010895CF93C82FD5
:1002300041E061E487E00E94220240E061E486E060
:100240000E942202CC2334F441E061E480E00E9469
:10025000220205C041E061E480E00E942202C6FF64
:1002600006C041E061E481E00E94220205C041E055
:1002700061E481E00E942202C5FF06C041E061E422
:1002800082E00E94220205C041E061E482E00E9417
:100290002202C4FF06C041E061E483E00E94220222
:1002A00005C041E061E483E00E9422020E943D001B
:1002B000C3FF06C041E061E480E00E94220205C065
:1002C00041E061E480E00E942202C2FF06C041E0FA
:1002D00061E481E00E94220205C041E061E481E026
:1002E0000E942202C1FF06C041E061E482E00E9458
:1002F000220205C041E061E482E00E942202C0FFC8
:1003000006C041E061E483E00E94220205C041E0B2
:1003100061E483E00E9422020E943D00CF91089593
:100320000E9436000E94390080E090E00895623417
:1003300059F118F4613441F00895633409F444C06C
:10034000643409F460C0089541110EC04AB321E03D
:1003500030E0B90102C0660F771F8A95E2F7CB0142
:10036000809584238ABB0895413009F06AC04AB35E
:1003700021E030E0B90102C0660F771F8A95E2F7ED
:10038000CB01842B8ABB089541110EC047B321E0F5
:1003900030E0B90102C0660F771F8A95E2F7CB0102
:1003A0008095842387BB0895413009F04AC047B344
:1003B00021E030E0B90102C0660F771F8A95E2F7AD
:1003C000CB01842B87BB089541110EC044B321E0BB
:1003D00030E0B90102C0660F771F8A95E2F7CB01C2
:1003E0008095842384BB0895413059F544B321E0BE
:1003F00030E0B90102C0660F771F8A95E2F7CB01A2
:10040000842B84BB089541110EC041B321E030E03C
:10041000B90102C0660F771F8A95E2F7CB0180957C
:10042000842381BB0895413061F441B321E030E081
:10043000B90102C0660F771F8A95E2F7CB01842BC2
:1004400081BB0895623459F118F4613441F0089584
:10045000633409F444C0643409F460C00895411160
:100460000EC04BB321E030E0B90102C0660F771F28
:100470008A95E2F7CB01809584238BBB08954130A8
:1004800009F06AC04BB321E030E0B90102C0660F49
:10049000771F8A95E2F7CB01842B8BBB089541111E
:1004A0000EC048B321E030E0B90102C0660F771FEB
:1004B0008A95E2F7CB018095842388BB089541306B
:1004C00009F04AC048B321E030E0B90102C0660F2C
:1004D000771F8A95E2F7CB01842B88BB08954111E1
:1004E0000EC045B321E030E0B90102C0660F771FAE
:1004F0008A95E2F7CB018095842385BB089541302E
:1005000059F545B321E030E0B90102C0660F771F0D
:100510008A95E2F7CB01842B85BB089541110EC06B
:1005200042B321E030E0B90102C0660F771F8A951F
:10053000E2F7CB018095842382BB0895413061F4BA
:1005400042B321E030E0B90102C0660F771F8A95FF
:0E055000E2F7CB01842B82BB0895F894FFCF15
:00000001FF
