:100000000C94A7000C94A0080C94B0080C94C008A1
:100010000C94C4000C94C4000C94C4000C94C40050
:100020000C94C4000C94C4000C94C4000C943508C7
:100030000C94C4000C94C4000C94C4000C94C40030
:100040000C94C4000C94C4000C94C4000C94C40020
:100050000C94C40000407A10F35A00A0724E1809A4
:100060000010A5D4E80000E87648170000E40B541F
:10007000020000CA9A3B000000E1F50500008096EE
:100080009800000040420F000000A0860100000020
:10009000102700000000E8030000000064000000DA
:1000A00000000A00000000000100000000002C76A3
:1000B000D888DC674F0823DFC1DFAE59E1B1B796BE
:1000C000E5E3E453C63AE651997696E8E6C284261B
:1000D000EB898C9B62ED407C6FFCEFBC9C9F40F2F7
:1000E000BAA56FA5F490055A2AF75C936B6CF96773
:1000F0006DC11BFCE0E40D47FEF520E6B500D0ED38
:10010000902E0300943577050080841E080000209F
:100110004E0A000000C80C333333330F986E12833D
:100120001141EF8D2114893BE65516CFFEE6DB1811
:10013000D1844B381BF77C1D901DA4BBE4242032D6
:1001400084725E228100C9F124ECA1E53D271124CF
:100150001FBECFE5D8E0DEBFCDBF10E0A0E6B0E027
:10016000E4E7FCE302C005900D92A039B107D9F78E
:1001700010E0A0E9B0E001C01D92AC39B107E1F791
:100180000E94681B0C94381E0C940000EF92FF92A2
:100190000F931F937B018C0120E030E040E05FE48F
:1001A0000E94720488238CF0C801B70120E030E07F
:1001B00040E05FE40E943E020E94D2049B01AC0139
:1001C000205030404040504806C0C801B7010E944E
:1001D000D2049B01AC01B901CA011F910F91FF909C
:1001E000EF900895A0E0B0E0E8EFF0E00C949F1BE2
:1001F000DC012B01FA019C91923008F439C1EB012A
:100200008881823008F433C1943069F4843009F075
:100210002FC111969C9111978981981709F428C1D3
:10022000A8E7B0E025C1843009F421C18230A9F4E7
:10023000923009F01DC19A01AD0188E0EA010990F0
:10024000AE01E90109929E018150C1F7E201898165
:1002500011969C918923818308C1923009F407C1CA
:1002600012962D903C901397EB018A819B811496F6
:10027000AD90BD90CD90DC901797EC80FD800E8105
:100280001F819101281B390BB90137FF04C0662774
:100290007727621B730B603271050CF061C0121678
:1002A00013066CF537014801062E04C09694879416
:1002B000779467940A94D2F721E030E040E050E070
:1002C00004C0220F331F441F551F6A95D2F72150D7
:1002D0003040404050402E213F21402351232115E2
:1002E00031054105510521F021E030E040E050E0CA
:1002F00079018A01E628F728082919293CC0232B0F
:10030000D1F1260E371E35014601062E04C0969403
:100310008794779467940A94D2F721E030E040E024
:1003200050E004C0220F331F441F551F6A95D2F7B7
:1003300021503040404050402A213B214C215D213A
:10034000211531054105510521F021E030E040E063
:1003500050E059016A01A628B728C828D9280BC03F
:10036000821593052CF01C01AA24BB24650103C04F
:10037000EE24FF24870111969C91D20111968C9155
:10038000981709F445C0992339F0A80197012A1953
:100390003B094C095D0906C0A60195012E193F09CC
:1003A000400B510B57FD08C01182338222822483F7
:1003B0003583468357831DC081E081833382228247
:1003C00088279927DC01821B930BA40BB50B848330
:1003D0009583A683B7830DC0220F331F441F551F7B
:1003E0002483358346835783828193810197938346
:1003F00082832481358146815781DA01C9010197C1
:10040000A109B1098F5F9F4FAF4FBF4328F30BC0C6
:10041000918333822282EA0CFB1C0C1D1D1DE48299
:10042000F5820683178383E08083248135814681AA
:10043000578157FF1AC0C901AA2797FDA095BA2F67
:1004400081709070A070B07056954795379527953C
:10045000822B932BA42BB52B84839583A683B78300
:1004600082819381019693838283DF0101C0D2014F
:10047000CD01CDB7DEB7E2E10C94BB1BA0E2B0E04A
:10048000E4E4F2E00C94AB1B69837A838B839C8356
:100490002D833E834F835887E9E0EE2EF12CEC0E3E
:1004A000FD1ECE010196B7010E94FB058E010F5E75
:1004B0001F4FCE010596B8010E94FB058A8991E085
:1004C00089278A8BC701B801AE01475E5F4F0E9442
:1004D000F2000E942605A096E6E00C94C71BA0E25D
:1004E000B0E0E5E7F2E00C94AB1B69837A838B8381
:1004F0009C832D833E834F835887F9E0EF2EF12CA8
:10050000EC0EFD1ECE010196B7010E94FB058E0187
:100510000F5E1F4FCE010596B8010E94FB05C70173
:10052000B801AE01475E5F4F0E94F2000E942605AF
:10053000A096E6E00C94C71BA0E2B0E0E2EAF2E08D
:100540000C949F1B69837A838B839C832D833E83CA
:100550004F835887CE010196BE01675F7F4F0E948F
:10056000FB05CE010596BE016F5E7F4F0E94FB0525
:100570009985923088F089898230C8F0943019F4D6
:10058000823051F404C0843029F4923081F488E739
:1005900090E0C6C0923049F420E09A858A89981389
:1005A00021E02A87CE010996BBC0823049F420E0C1
:1005B0009A858A89981321E02A8BCE014196B0C092
:1005C0002D843E844F8458886D887E888F88988CCF
:1005D000EE24FF248701AA24BB24650140E050E0FB
:1005E00060E070E0E0E0F0E0C10181709070892B84
:1005F000E9F0E60CF71C081D191D9A01AB012A0D44
:100600003B1D4C1D5D1D80E090E0A0E0B0E0E614D5
:10061000F7040805190520F481E090E0A0E0B0E0BF
:10062000BA01A901480F591F6A1F7B1FAA0CBB1CE6
:10063000CC1CDD1C97FE08C081E090E0A0E0B0E09B
:10064000A82AB92ACA2ADB2A3196E032F10549F0F4
:10065000660C771C881C991C5694479437942794F1
:10066000C3CFFA85EA892B893C898B859C85280F25
:10067000391F2E5F3F4F17C0CA0181709070892BC0
:1006800061F016950795F794E79480E090E0A0E07C
:10069000B0E8E82AF92A0A2B1B2B7695679557951F
:1006A00047952F5F3F4F77FDE7CF0CC0440F551F95
:1006B000661F771F17FD4160EE0CFF1C001F111F06
:1006C00021503040403090E0590790E0690790E4B5
:1006D000790760F32B8F3C8FDB01CA018F77907015
:1006E000A070B07080349105A105B10561F447FD9B
:1006F0000AC0E114F1040105110529F0405C5F4FC7
:100700006F4F7F4F40781A8EFE1711F081E08A8F6D
:100710004D8F5E8F6F8F78A383E0898FCE014996CE
:100720000E942605A096E2E10C94BB1BA8E1B0E074
:10073000ECE9F3E00C94A71B69837A838B839C8399
:100740002D833E834F835887B9E0EB2EF12CEC0EBE
:10075000FD1ECE010196B7010E94FB058E010F5EC2
:100760001F4FCE010596B8010E94FB052985223056
:1007700008F47EC03989323010F4B8017CC08A8513
:100780009A8989278A87243011F0223031F423177F
:1007900009F06EC068E770E06EC0343039F41D8631
:1007A0001E861F86188A1C861B8604C0323021F4E0
:1007B00084E08987B7015FC02B853C858B899C8944
:1007C000281B390B3C872B87ED84FE840F85188905
:1007D000AD88BE88CF88D88CEA14FB040C051D05B3
:1007E00040F4EE0CFF1C001F111F215030403C87CD
:1007F0002B8720E030E040E050E080E090E0A0E097
:10080000B0E460E070E0EA14FB040C051D0540F064
:10081000282B392B4A2B5B2BEA18FB080C091D09E6
:10082000B695A79597958795EE0CFF1C001F111F95
:100830006F5F7F4F6F31710531F7DA01C9018F7733
:100840009070A070B07080349105A105B10561F47D
:1008500027FD0AC0E114F1040105110529F0205C0F
:100860003F4F4F4F5F4F20782D873E874F87588BE4
:10087000BE01675F7F4FCB010E9426056896EAE0C4
:100880000C94C31BA8E1B0E0E8E4F4E00C94AB1BCB
:1008900069837A838B839C832D833E834F83588720
:1008A00089E0E82EF12CEC0EFD1ECE010196B70179
:1008B0000E94FB058E010F5E1F4FCE010596B80109
:1008C0000E94FB058985823040F08989823028F0BA
:1008D000C701B8010E94730601C08FEF6896E6E079
:1008E0000C94C71BA8E1B0E0E8E7F4E00C94AB1B64
:1008F00069837A838B839C832D833E834F835887C0
:1009000089E0E82EF12CEC0EFD1ECE010196B70118
:100910000E94FB058E010F5E1F4FCE010596B801A8
:100920000E94FB058985823040F08989823028F059
:10093000C701B8010E94730601C08FEF6896E6E018
:100940000C94C71BA8E1B0E0E8EAF4E00C94AB1B00
:1009500069837A838B839C832D833E834F8358875F
:1009600089E0E82EF12CEC0EFD1ECE010196B701B8
:100970000E94FB058E010F5E1F4FCE010596B80148
:100980000E94FB058985823040F08989823028F0F9
:10099000C701B8010E94730601C081E06896E6E0D5
:1009A0000C94C71BACE0B0E0E8EDF4E00C94AF1B96
:1009B00069837A838B839C83CE010196BE016B5F32
:1009C0007F4F0E94FB058D81823061F1823050F1B2
:1009D000843021F48E81882351F12EC02F813885F7
:1009E00037FD20C06E812F3131051CF06623F9F0F0
:1009F00023C08EE190E0821B930B29853A854B85BD
:100A00005C8504C056954795379527958A95D2F70A
:100A10006623B1F050954095309521953F4F4F4F4B
:100A20005F4F0EC020E030E040E050E009C02FEF03
:100A30003FEF4FEF5FE704C020E030E040E050E8D8
:100A4000B901CA012C96E2E00C94CB1BDF92EF9225
:100A5000FF920F931F93FC01E480F58006811781BC
:100A6000D1808081823048F480E090E0A0E1B0E065
:100A7000E82AF92A0A2B1B2BA5C0843009F49FC051
:100A8000823021F4EE24FF24870105C0E114F10433
:100A90000105110519F4E0E0F0E096C06281738170
:100AA0009FEF623879070CF05BC022E83FEF261B0E
:100AB000370B2A3131052CF020E030E040E050E0E7
:100AC0002AC0B801A701022E04C0769567955795F4
:100AD00047950A94D2F781E090E0A0E0B0E004C02E
:100AE000880F991FAA1FBB1F2A95D2F70197A1094A
:100AF000B1098E219F21A023B1230097A105B10543
:100B000021F081E090E0A0E0B0E09A01AB01282B59
:100B1000392B4A2B5B2BDA01C9018F779070A070BB
:100B2000B07080349105A105B10539F427FF09C0E3
:100B3000205C3F4F4F4F5F4F04C0215C3F4F4F4FF2
:100B40005F4FE0E0F0E02030A0E03A07A0E04A0785
:100B5000A0E45A0710F0E1E0F0E079018A0127C033
:100B60006038710564F5FB01E158FF4FD801C701FA
:100B70008F779070A070B07080349105A105B10599
:100B800039F4E7FE0DC080E490E0A0E0B0E004C0DE
:100B90008FE390E0A0E0B0E0E80EF91E0A1F1B1FF3
:100BA00017FF05C016950795F794E794319687E0EF
:100BB00016950795F794E7948A95D1F705C0EE242A
:100BC000FF248701EFEFF0E06E2F679566276795AA
:100BD000902F9F77D794DD24D7948E2F8695492F19
:100BE000462B582F5D29B701CA011F910F91FF9025
:100BF000EF90DF900895FC01DB014081518122815B
:100C0000622F6F7770E0221F2227221F9381892F86
:100C1000880F822B282F30E0991F9927991F119652
:100C20009C93119721153105A9F5411551056105D1
:100C3000710511F482E037C082E89FEF13969C9310
:100C40008E9312979A01AB0167E0220F331F441F66
:100C5000551F6A95D1F783E08C930DC0220F331F87
:100C6000441F551F12968D919C91139701971396CF
:100C70009C938E931297203080E0380780E04807DD
:100C800080E4580758F314962D933D934D935C934D
:100C9000179708952F3F310579F4411551056105E6
:100CA000710519F484E08C93089564FF03C081E01A
:100CB0008C9312C01C9210C02F57304013963C9357
:100CC0002E93129783E08C9387E0440F551F661F85
:100CD000771F8A95D1F7706414964D935D936D9349
:100CE0007C93179708951F93DC01FB019C91923030
:100CF00008F447C08081823008F443C0943051F436
:100D000011961C91843099F58181682F70E0611BE8
:100D100071093FC0843021F0923031F48230B9F152
:100D20008181882389F12DC011961C911197823001
:100D3000F1F081811817D9F412962D913C911397F7
:100D4000828193818217930794F028173907BCF0AA
:100D500014968D919D910D90BC91A02D248135818B
:100D600046815781281739074A075B0718F4112372
:100D700041F00AC082179307A407B50740F4112376
:100D800019F061E070E005C06FEF7FEF02C060E036
:100D900070E0CB011F910895DF93CF93CDB7DEB7FD
:100DA000A9E5B0E0E9E5F0E0808184608C93AEE4F1
:100DB000B0E0EEE4F0E080818E7F8C93AEE4B0E0B2
:100DC000EEE4F0E080818D7F8C93AEE4B0E0EEE461
:100DD000F0E0808184608C93CF91DF910895DF9360
:100DE000CF9300D000D00F92CDB7DEB769837A835E
:100DF0008B839C8318C0E8E5F0E08081882F90E029
:100E0000847090709595879595958795009799F33F
:100E1000ECE4F0E011821082A8E5B0E0E8E5F0E053
:100E2000808184608C931D8289819A81AB81BC8191
:100E30000097A105B10511F081E08D8389819A8128
:100E4000AB81BC810197A109B10989839A83AB83E6
:100E5000BC838D81882379F60F900F900F900F90AF
:100E60000F90CF91DF910895DF93CF93CDB7DEB789
:100E7000AEE4B0E0EEE4F0E080818E7F8C93AEE4EF
:100E8000B0E0EEE4F0E080818D7F8C93AEE4B0E0E2
:100E9000EEE4F0E080818B7F8C93CF91DF91089519
:100EA000DF93CF93CDB7DEB7A3E5B0E0E3E5F0E0A5
:100EB00080818F7E8C93A3E5B0E0E3E5F0E0808154
:100EC000877F8C93A9E5B0E0E9E5F0E0808181605F
:100ED0008C93A3E5B0E0E3E5F0E080818E7F8C9316
:100EE000A3E5B0E0E3E5F0E0808182608C93A3E5C8
:100EF000B0E0E3E5F0E080818B7F8C93CF91DF91D0
:100F00000895DF93CF93CDB7DEB7A3E5B0E0E3E577
:100F1000F0E080818E7F8C93A3E5B0E0E3E5F0E024
:100F200080818D7F8C93A3E5B0E0E3E5F0E08081E4
:100F30008B7F8C93CF91DF910895DF93CF9300D077
:100F400000D00F92CDB7DEB769837A838B839C8301
:100F500013C0E8E5F0E08081882F90E08170907008
:100F60000097B9F3E2E5F0E01082A8E5B0E0E8E52B
:100F7000F0E0808181608C931D8289819A81AB81B0
:100F8000BC810097A105B10511F081E08D838981B5
:100F90009A81AB81BC810197A109B10989839A83A8
:100FA000AB83BC838D818823A1F60F900F900F90A7
:100FB0000F900F90CF91DF910895DF93CF930F9211
:100FC000CDB7DEB78983ECE5F0E0898180830F90AF
:100FD000CF91DF910895DF93CF9300D0CDB7DEB7E7
:100FE0009A83898389819A81909395008093940054
:100FF0000F900F90CF91DF910895DF93CF9300D0A2
:10100000CDB7DEB79A83898389819A8190939300C3
:10101000809392000F900F90CF91DF910895DF930E
:10102000CF9300D0CDB7DEB78A838A81482F50E0B6
:10103000CA019C01220F331FC9019695982F88275A
:1010400097958795821B930B840F951F24E630E0BC
:10105000B9010E94781BCB01898389810E94DD0739
:101060000F900F90CF91DF9108951F920F920FB6BE
:101070000F9211242F933F934F935F936F937F931E
:101080008F939F93AF93BF93EF93FF93DF93CF9390
:10109000CDB7DEB7E2E5F0E087E380838091900092
:1010A0008F5F8093900080919400909195000097BD
:1010B000A9F0E0919400F091950080919100882F23
:1010C00090E09C01220F331FC901880F991F880FE0
:1010D000991F820F931F62E443E00995CF91DF913E
:1010E000FF91EF91BF91AF919F918F917F916F9100
:1010F0005F914F913F912F910F900FBE0F901F90D6
:101100001895DF93CF93CDB7DEB7AFE5B0E0EFE54D
:10111000F0E0808180688C93A5E5B0E0E5E5F0E043
:1011200080818E7F8C93A5E5B0E0E5E5F0E08081DD
:101130008D7F8C9380E00E94D008CF91DF9108953D
:101140001F920F920FB60F921124DF93CF93CDB75A
:10115000DEB7CF91DF910F900FBE0F901F901895C3
:101160001F920F920FB60F921124DF93CF93CDB73A
:10117000DEB7CF91DF910F900FBE0F901F901895A3
:101180001F920F920FB60F921124DF93CF93CDB71A
:10119000DEB7CF91DF910F900FBE0F901F90189583
:1011A000DF93CF9300D00F92CDB7DEB789838981CB
:1011B000282F30E03B832A838A819B8181309105EF
:1011C00089F02A813B8122303105A1F08A819B81FF
:1011D0000097B9F4ABE5B0E0EBE5F0E08081806426
:1011E0008C930FC0ABE5B0E0EBE5F0E08081806868
:1011F0008C9307C0ABE5B0E0EBE5F0E08081806266
:101200008C930F900F900F90CF91DF910895DF9303
:10121000CF9300D00F92CDB7DEB789838981282F75
:1012200030E03B832A838A819B818130910589F05C
:101230002A813B8122303105A1F08A819B81009770
:10124000B9F4ABE5B0E0EBE5F0E080818F7B8C9307
:101250000FC0ABE5B0E0EBE5F0E080818F778C93D9
:1012600007C0ABE5B0E0EBE5F0E080818F7D8C93CB
:101270000F900F900F90CF91DF910895DF93CF9350
:1012800000D0CDB7DEB79A83898389819A81909304
:101290009B0080939A000F900F90CF91DF9108955B
:1012A000DF93CF9300D0CDB7DEB79A83898389814E
:1012B0009A8190939700809396000F900F90CF9112
:1012C000DF910895DF93CF9300D0CDB7DEB79A8337
:1012D000898389819A8190939900809398000F90D7
:1012E0000F90CF91DF910895DF93CF9300D000D07E
:1012F0000F92CDB7DEB789836A834B838A81282F0B
:1013000030E03D832C838C819D818234910509F4EA
:1013100062C02C813D812334310534F48C819D8160
:101320008134910571F032C12C813D812334310526
:1013300009F49BC08C819D818434910509F4DFC040
:1013400025C18B81882319F08B81823061F5AAE356
:10135000B0E0EAE3F0E08081482F8981282F30E077
:1013600081E090E0022E02C0880F991F0A94E2F7F4
:10137000809584238C938B81823009F007C1ABE385
:10138000B0E0EBE3F0E08081482F8981282F30E046
:1013900081E090E0022E02C0880F991F0A94E2F7C4
:1013A000842B8C93F3C08B81813009F0EFC0AAE3CA
:1013B000B0E0EAE3F0E08081482F8981282F30E017
:1013C00081E090E0022E02C0880F991F0A94E2F794
:1013D000842B8C93DBC08B81882319F08B81823026
:1013E00061F5A7E3B0E0E7E3F0E08081482F898171
:1013F000282F30E081E090E0022E02C0880F991F74
:101400000A94E2F7809584238C938B81823009F0D3
:10141000BDC0A8E3B0E0E8E3F0E08081482F898117
:10142000282F30E081E090E0022E02C0880F991F43
:101430000A94E2F7842B8C93A9C08B81813009F048
:10144000A5C0A7E3B0E0E7E3F0E08081482F898101
:10145000282F30E081E090E0022E02C0880F991F13
:101460000A94E2F7842B8C9391C08B81882319F026
:101470008B81823061F5A4E3B0E0E4E3F0E08081A9
:10148000482F8981282F30E081E090E0022E02C0B1
:10149000880F991F0A94E2F7809584238C938B819F
:1014A000823009F073C0A5E3B0E0E5E3F0E08081AD
:1014B000482F8981282F30E081E090E0022E02C081
:1014C000880F991F0A94E2F7842B8C935FC08B815D
:1014D000813009F05BC0A4E3B0E0E4E3F0E0808198
:1014E000482F8981282F30E081E090E0022E02C051
:1014F000880F991F0A94E2F7842B8C9347C08B8145
:10150000882319F08B81823059F5A1E3B0E0E1E343
:10151000F0E08081482F8981282F30E081E090E041
:10152000022E02C0880F991F0A94E2F78095842347
:101530008C938B81823051F5A2E3B0E0E2E3F0E0DE
:101540008081482F8981282F30E081E090E0022EB1
:1015500002C0880F991F0A94E2F7842B8C9316C05F
:101560008B81813099F4A1E3B0E0E1E3F0E0808188
:10157000482F8981282F30E081E090E0022E02C0C0
:10158000880F991F0A94E2F7842B8C930F900F9089
:101590000F900F900F90CF91DF910895DF93CF932D
:1015A00000D000D00F92CDB7DEB789836A834B831A
:1015B0008A81282F30E03D832C838C819D81823469
:1015C000910509F448C02C813D812334310534F460
:1015D0008C819D818134910571F0CBC02C813D813E
:1015E0002334310509F467C08C819D8184349105D1
:1015F00009F491C0BEC08B818823A9F4ABE3B0E0AD
:10160000EBE3F0E08081482F8981282F30E081E0F2
:1016100090E0022E02C0880F991F0A94E2F780958D
:1016200084238C93A6C08B81813009F0A2C0ABE3E8
:10163000B0E0EBE3F0E08081482F8981282F30E093
:1016400081E090E0022E02C0880F991F0A94E2F711
:10165000842B8C938EC08B818823A9F4A8E3B0E0FF
:10166000E8E3F0E08081482F8981282F30E081E095
:1016700090E0022E02C0880F991F0A94E2F780952D
:1016800084238C9376C08B81813009F072C0A8E3EB
:10169000B0E0E8E3F0E08081482F8981282F30E036
:1016A00081E090E0022E02C0880F991F0A94E2F7B1
:1016B000842B8C935EC08B818823A9F4A5E3B0E0D2
:1016C000E5E3F0E08081482F8981282F30E081E038
:1016D00090E0022E02C0880F991F0A94E2F78095CD
:1016E00084238C9346C08B81813009F042C0A5E3EE
:1016F000B0E0E5E3F0E08081482F8981282F30E0D9
:1017000081E090E0022E02C0880F991F0A94E2F750
:10171000842B8C932EC08B818823A9F4A2E3B0E0A4
:10172000E2E3F0E08081482F8981282F30E081E0DA
:1017300090E0022E02C0880F991F0A94E2F780956C
:1017400084238C9316C08B81813099F4A2E3B0E09E
:10175000E2E3F0E08081482F8981282F30E081E0AA
:1017600090E0022E02C0880F991F0A94E2F7842BA2
:101770008C930F900F900F900F900F90CF91DF915F
:101780000895DF93CF93CDB7DEB72C970FB6F894BB
:10179000DEBF0FBECDBF89836A838A81282F30E0E8
:1017A0003C872B874B855C854234510509F461C029
:1017B0008B859C858334910534F42B853C852134BD
:1017C000310571F030C14B855C854334510509F416
:1017D00099C08B859C858434910509F4DCC023C1B4
:1017E000E9E3F0E08081482F50E08981282F30E044
:1017F00081E090E002C0880F991F2A95E2F79A01D4
:10180000282339238981882F90E0A90102C05595AA
:1018100047958A95E2F7CA010097B1F0ABE3B0E0D3
:10182000EBE3F0E08081482F8981282F30E081E0D0
:1018300090E0022E02C0880F991F0A94E2F780956B
:1018400084238C935C91EFC0ABE3B0E0EBE3F0E07A
:101850008081482F8981282F30E081E090E0022E9E
:1018600002C0880F991F0A94E2F7842B8C938C9105
:10187000DAC0E6E3F0E08081482F50E08981282F2C
:1018800030E081E090E002C0880F991F2A95E2F7CE
:101890009A01282339238981882F90E0A90102C069
:1018A000559547958A95E2F7CA010097B1F0A8E3EC
:1018B000B0E0E8E3F0E08081482F8981282F30E014
:1018C00081E090E0022E02C0880F991F0A94E2F78F
:1018D000809584238C935C91A6C0A8E3B0E0E8E3F4
:1018E000F0E08081482F8981282F30E081E090E06E
:1018F000022E02C0880F991F0A94E2F7842B8C9362
:101900008C9191C0E3E3F0E08081482F50E0898121
:10191000282F30E081E090E002C0880F991F2A95BF
:10192000E2F79A01282339238981882F90E0A901C1
:1019300002C0559547958A95E2F7CA010097B1F024
:10194000A5E3B0E0E5E3F0E08081482F8981282F0E
:1019500030E081E090E0022E02C0880F991F0A94C7
:10196000E2F7809584238C935C915DC0A5E3B0E0A1
:10197000E5E3F0E08081482F8981282F30E081E085
:1019800090E0022E02C0880F991F0A94E2F7842B80
:101990008C938C9148C0E0E3F0E08081482F50E0C8
:1019A0008981282F30E081E090E002C0880F991FE4
:1019B0002A95E2F79A01282339238981882F90E01C
:1019C000A90102C0559547958A95E2F7CA0100978B
:1019D000B1F0A2E3B0E0E2E3F0E08081482F89813A
:1019E000282F30E081E090E0022E02C0880F991F7E
:1019F0000A94E2F7809584238C935C9114C0A2E34F
:101A0000B0E0E2E3F0E08081482F8981282F30E0C8
:101A100081E090E0022E02C0880F991F0A94E2F73D
:101A2000842B8C938C912C960FB6F894DEBF0FBE4E
:101A3000CDBFCF91DF910895DF93CF9300D000D039
:101A400000D0CDB7DEB789836A835C834B838A81FC
:101A5000282F30E03E832D834D815E814234510535
:101A6000C1F18D819E818334910534F42D813E81B5
:101A70002134310571F08DC04D815E8143345105B3
:101A800009F447C08D819E818434910509F461C0B9
:101A900080C0E9E3F0E08081482F50E08981282F61
:101AA00030E081E090E002C0880F991F2A95E2F7AC
:101AB0009A01282339238981882F90E0A90102C047
:101AC000559547958A95E2F7CA01EB81FC818083A1
:101AD00064C0E6E3F0E08081482F50E08981282F40
:101AE00030E081E090E002C0880F991F2A95E2F76C
:101AF0009A01282339238981882F90E0A90102C007
:101B0000559547958A95E2F7CA01EB81FC81808360
:101B100044C0E3E3F0E08081482F50E08981282F22
:101B200030E081E090E002C0880F991F2A95E2F72B
:101B30009A01282339238981882F90E0A90102C0C6
:101B4000559547958A95E2F7CA01EB81FC81808320
:101B500024C0E0E3F0E08081482F50E08981282F05
:101B600030E081E090E002C0880F991F2A95E2F7EB
:101B70009A01282339238981882F90E0A90102C086
:101B8000559547958A95E2F7CA01EB81FC818083E0
:101B900004C0EB81FC818FEF808326960FB6F8940A
:101BA000DEBF0FBECDBFCF91DF910895DF93CF93FE
:101BB00000D000D00F92CDB7DEB789836A838A81C7
:101BC000282F30E03D832C834C815D8142345105C8
:101BD000B1F18C819D818334910534F42C813D8158
:101BE0002134310571F085C04C815D81433451054C
:101BF00009F443C08C819D818434910509F45BC054
:101C000078C0E9E3F0E08081482F50E08981282FF7
:101C100030E081E090E002C0880F991F2A95E2F73A
:101C20009A01282339238981882F90E0A90102C0D5
:101C3000559547958A95E2F7CA018B835CC0E6E328
:101C4000F0E08081482F50E08981282F30E081E04A
:101C500090E002C0880F991F2A95E2F79A01282385
:101C600039238981882F90E0A90102C055954795B5
:101C70008A95E2F7CA018B833EC0E3E3F0E08081FE
:101C8000482F50E08981282F30E081E090E002C0A9
:101C9000880F991F2A95E2F79A0128233923898111
:101CA000882F90E0A90102C0559547958A95E2F7E3
:101CB000CA018B8320C0E0E3F0E08081482F50E030
:101CC0008981282F30E081E090E002C0880F991FC1
:101CD0002A95E2F79A01282339238981882F90E0F9
:101CE000A90102C0559547958A95E2F7CA018B83F1
:101CF00002C05FEF5B838B810F900F900F900F906E
:101D00000F90CF91DF910895DF93CF93CDB7DEB7DA
:101D1000A6E2B0E0E6E2F0E0808180688C93A7E282
:101D2000B0E0E7E2F0E0808180648C93A7E2B0E06D
:101D3000E7E2F0E080818F778C93A6E2B0E0E6E204
:101D4000F0E080818E7F8C93A6E2B0E0E6E2F0E0E6
:101D5000808182608C93A6E2B0E0E6E2F0E08081D0
:101D600084608C93CF91DF910895DF93CF9300D05F
:101D70000F92CDB7DEB78B838B810E94DD0EA6E27A
:101D8000B0E0E6E2F0E0808180648C930E94431032
:101D9000A6E2B0E0E6E2F0E0808180618C93E4E2CC
:101DA000F0E0808191819A83898389819A810F9063
:101DB0000F900F90CF91DF910895DF93CF9300D0D4
:101DC0000F92CDB7DEB789838981282F30E03B831E
:101DD0002A838A819B818330910509F49BC02A81E3
:101DE0003B81243031058CF48A819B8181309105BF
:101DF00009F448C02A813B81223031050CF066C0CD
:101E00008A819B810097D1F038C12A813B8125309E
:101E1000310509F4C7C08A819B81853091050CF496
:101E20009DC02A813B812630310509F4DFC08A81BB
:101E30009B818730910509F4FDC01FC1A7E2B0E086
:101E4000E7E2F0E080818E7F8C93A7E2B0E0E7E2EA
:101E5000F0E080818D7F8C93A7E2B0E0E7E2F0E0D4
:101E600080818B7F8C93A7E2B0E0E7E2F0E0808195
:101E7000877F8C93A7E2B0E0E7E2F0E080818F7E7D
:101E80008C93FBC0A7E2B0E0E7E2F0E080818160E4
:101E90008C93A7E2B0E0E7E2F0E080818D7F8C9345
:101EA000A7E2B0E0E7E2F0E080818B7F8C93A7E2CD
:101EB000B0E0E7E2F0E08081877F8C93A7E2B0E0BA
:101EC000E7E2F0E080818F7E8C93D7C0A7E2B0E09C
:101ED000E7E2F0E080818E7F8C93A7E2B0E0E7E25A
:101EE000F0E0808182608C93A7E2B0E0E7E2F0E06E
:101EF00080818B7F8C93A7E2B0E0E7E2F0E0808105
:101F0000877F8C93A7E2B0E0E7E2F0E080818F7EEC
:101F10008C93B3C0A7E2B0E0E7E2F0E0808181609B
:101F20008C93A7E2B0E0E7E2F0E0808182608C93DE
:101F3000A7E2B0E0E7E2F0E080818B7F8C93A7E23C
:101F4000B0E0E7E2F0E08081877F8C93A7E2B0E029
:101F5000E7E2F0E080818F7E8C938FC0A7E2B0E053
:101F6000E7E2F0E080818E7F8C93A7E2B0E0E7E2C9
:101F7000F0E080818D7F8C93A7E2B0E0E7E2F0E0B3
:101F8000808184608C93A7E2B0E0E7E2F0E080819A
:101F9000877F8C93A7E2B0E0E7E2F0E080818F7E5C
:101FA0008C936BC0A7E2B0E0E7E2F0E08081816053
:101FB0008C93A7E2B0E0E7E2F0E080818D7F8C9324
:101FC000A7E2B0E0E7E2F0E0808184608C93A7E2D2
:101FD000B0E0E7E2F0E08081877F8C93A7E2B0E099
:101FE000E7E2F0E080818F7E8C9347C0A7E2B0E00B
:101FF000E7E2F0E080818E7F8C93A7E2B0E0E7E239
:10200000F0E0808182608C93A7E2B0E0E7E2F0E04C
:10201000808184608C93A7E2B0E0E7E2F0E0808109
:10202000877F8C93A7E2B0E0E7E2F0E080818F7ECB
:102030008C9323C0A7E2B0E0E7E2F0E0808181600A
:102040008C93A7E2B0E0E7E2F0E0808182608C93BD
:10205000A7E2B0E0E7E2F0E0808184608C93A7E241
:10206000B0E0E7E2F0E08081877F8C93A7E2B0E008
:10207000E7E2F0E080818F7E8C930F900F900F90BD
:10208000CF91DF910895DF93CF93CDB7DEB7E6E22E
:10209000F0E08081882F90E0807190709595879511
:1020A000959587959595879595958795009779F35B
:1020B000CF91DF910895DF93CF93CDB7DEB780E066
:1020C00064E441E00E94740981E064E441E00E941C
:1020D000740982E064E441E00E94740983E064E4EE
:1020E00041E00E94740984E064E441E00E947409C4
:1020F00085E064E441E00E94740986E064E441E024
:102100000E94740987E064E441E00E947409CF9161
:10211000DF910895DF93CF930F92CDB7DEB7898318
:102120008981882F90E081709070882331F080E061
:1021300064E441E00E94CE0A05C080E064E440E02F
:102140000E94CE0A8981882F90E0827090709595C8
:102150008795009731F081E064E441E00E94CE0A67
:1021600005C081E064E440E00E94CE0A8981882FA6
:1021700090E08470907095958795959587950097D8
:1021800031F082E064E441E00E94CE0A05C082E0C2
:1021900064E440E00E94CE0A8981882F90E0887034
:1021A00090709595879595958795959587950097C6
:1021B00031F083E064E441E00E94CE0A05C083E090
:1021C00064E440E00E94CE0A0F90CF91DF91089521
:1021D000DF93CF930F92CDB7DEB789838981882FA4
:1021E00090E081709070882331F084E064E441E0F5
:1021F0000E94CE0A05C084E064E440E00E94CE0A5A
:102200008981882F90E082709070959587950097CE
:1022100031F085E064E441E00E94CE0A05C085E02B
:1022200064E440E00E94CE0A8981882F90E08470A7
:1022300090709595879595958795009731F086E0F4
:1022400064E441E00E94CE0A05C086E064E440E018
:102250000E94CE0A8981882F90E0887090709595B1
:1022600087959595879595958795009731F087E0A7
:1022700064E441E00E94CE0A05C087E064E440E0E7
:102280000E94CE0A0F90CF91DF910895DF93CF93F4
:1022900000D0CDB7DEB789836A838A81698141E046
:1022A0000E9474090F900F90CF91DF910895DF93F2
:1022B000CF9300D0CDB7DEB789836A838A816981E5
:1022C00041E00E94CE0A0F900F90CF91DF910895C8
:1022D000DF93CF9300D0CDB7DEB789836A838A813D
:1022E000698140E00E94CE0A0F900F90CF91DF915C
:1022F0000895DF93CF9300D0CDB7DEB789836A838B
:102300008A8169810E94C10B0F900F90CF91DF915C
:1023100008950F931F93DF93CF93CDB7DEB7C456C5
:10232000D0400FB6F894DEBF0FBECDBF83E062E4AD
:1023300041E00E94740981E062E441E00E94740976
:1023400082E062E441E00E94740987E061E441E0D8
:102350000E94740986E061E441E00E94740985E00E
:1023600061E441E00E94740984E061E441E00E947C
:102370007409FE01EF59FF4F80E090E0ACE0B2E459
:1023800080839183A283B3838E01035A1F4FFE0182
:10239000EF59FF4F608171818281938120E030E0AD
:1023A0004AE755E40E949C02DC01CB01F8018083DE
:1023B0009183A283B383FE01E35AFF4F6081718151
:1023C0008281938120E030E040E85FE30E94A20434
:1023D000882344F4FE01E55AFF4F81E090E09183A9
:1023E000808364C0FE01E35AFF4F60817181828166
:1023F000938120E03FEF4FE757E40E944204181614
:102400000CF043C0FE01EF59FF4F60817181828162
:10241000938120E030E040E251E40E949C02DC0124
:10242000CB018E01055A1F4FBC01CD010E94C60091
:10243000DC01CB01F801918380831FC0FE01E75AC4
:10244000FF4F80E991E091838083FE01E75AFF4FBF
:10245000808191810197F1F7FE01E75AFF4F918347
:102460008083DE01A55ABF4FFE01E55AFF4F8081F0
:102470009181019711969C938E93FE01E55AFF4F2F
:10248000808191810097D1F627C08E01055A1F4F98
:10249000FE01E35AFF4F60817181828193810E9426
:1024A000C600DC01CB01F80191838083DE01A95ACB
:1024B000BF4FFE01E55AFF4F808191818D939C9320
:1024C000FE01E95AFF4F808191810197F1F7FE01EA
:1024D000E95AFF4F9183808382E00E949E1588E233
:1024E0000E949E15FE01ED5AFF4F80E090E0A0E2B1
:1024F000B2E480839183A283B3838E01015B1F4F7B
:10250000FE01ED5AFF4F60817181828193812BEA38
:102510003AEA4AEA50E40E949C02DC01CB01F8014D
:1025200080839183A283B383FE01E15BFF4F6081CF
:1025300071818281938120E030E040E85FE30E9476
:10254000A204882334F4FE01E25BFF4F81E0808324
:10255000E0C0FE01E15BFF4F608171818281938168
:1025600020E030E04FE753E40E94420418160CF0DC
:10257000C0C0FE01ED5AFF4F60817181828193815D
:1025800020E030E04AE754E40E949603DC01CB01EE
:10259000FE01E65BFF4F80839183A283B3838E01AC
:1025A0000A5B1F4FFE01E65BFF4F608171818281F4
:1025B000938120E030E04AE755E40E949C02DC0170
:1025C000CB01F80180839183A283B383FE01EA5B90
:1025D000FF4F608171818281938120E030E040E88B
:1025E0005FE30E94A204882344F4FE01EC5BFF4FEA
:1025F00081E090E09183808364C0FE01EA5BFF4F3D
:10260000608171818281938120E03FEF4FE757E441
:102610000E94420418160CF043C0FE01E65BFF4F17
:10262000608171818281938120E030E040E251E459
:102630000E949C02DC01CB018E010C5B1F4FBC0190
:10264000CD010E94C600DC01CB01F801918380839B
:102650001FC0FE01EE5BFF4F80E991E09183808314
:10266000FE01EE5BFF4F808191810197F1F7FE0142
:10267000EE5BFF4F91838083DE01AC5BBF4FFE01B9
:10268000EC5BFF4F80819181019711969C938E9313
:10269000FE01EC5BFF4F808191810097D1F642C033
:1026A0008E010C5B1F4FFE01EA5BFF4F6081718161
:1026B000828193810E94C600DC01CB01F8019183E5
:1026C0008083DE01A05CBF4FFE01EC5BFF4F808189
:1026D000918111969C938E93FE01E05CFF4F808167
:1026E00091810197F1F7FE01E05CFF4F91838083B8
:1026F00019C08E01025B1F4FFE01E15BFF4F60813D
:102700007181828193810E94C600DC01CB01F801B6
:102710008083FE01E25BFF4F80818FAF8FAD8A9592
:10272000F1F78FAF80E00E949E158EE00E949E150B
:1027300080E090E0A0E2B2E48BAF9CAFADAFBEAF63
:102740006BAD7CAD8DAD9EAD2BEA3AEA4AEA50E422
:102750000E949C02DC01CB018FAB98AFA9AFBAAF4E
:102760006FA978AD89AD9AAD20E030E040E85FE335
:102770000E94A20488231CF481E08EAB91C06FA953
:1027800078AD89AD9AAD20E030E04FE753E40E9488
:10279000420418160CF07BC06BAD7CAD8DAD9EADC8
:1027A00020E030E04AE754E40E949603DC01CB01CC
:1027B0008AAB9BABACABBDAB6AA97BA98CA99DA92D
:1027C00020E030E04AE755E40E949C02DC01CB01A6
:1027D0008EA79FA7A8ABB9AB6EA57FA588A999A91D
:1027E00020E030E040E85FE30E94A20488232CF45C
:1027F00081E090E09DA78CA73FC06EA57FA588A92A
:1028000099A920E03FEF4FE757E40E9442041816D1
:102810004CF56AA97BA98CA99DA920E030E040E293
:1028200051E40E949C02DC01CB01BC01CD010E945D
:10283000C600DC01CB019DA78CA70FC080E991E009
:102840009BA78AA78AA59BA50197F1F79BA78AA7B3
:102850008CA59DA501979DA78CA78CA59DA50097EC
:1028600069F724C06EA57FA588A999A90E94C60012
:10287000DC01CB019DA78CA78CA59DA599A788A756
:1028800088A599A50197F1F799A788A70FC06FA907
:1028900078AD89AD9AAD0E94C600DC01CB018EAB4C
:1028A0008EA98FA38FA18A95F1F78FA380E00E9454
:1028B0009E1581E00E949E1580E090E0A0E0B0E4CB
:1028C0008BA39CA3ADA3BEA36BA17CA18DA19EA154
:1028D00020E030E04AE755E40E949C02DC01CB0195
:1028E0008F8F98A3A9A3BAA36F8D78A189A19AA16C
:1028F00020E030E040E85FE30E94A20488232CF44B
:1029000081E090E09E8F8D8F3FC06F8D78A189A16F
:102910009AA120E03FEF4FE757E40E9442041816C7
:102920004CF56BA17CA18DA19EA120E030E040E29E
:1029300051E40E949C02DC01CB01BC01CD010E944C
:10294000C600DC01CB019E8F8D8F0FC080E991E026
:102950009C8F8B8F8B8D9C8D0197F1F79C8F8B8F2C
:102960008D8D9E8D01979E8F8D8F8D8D9E8D009765
:1029700069F714C06F8D78A189A19AA10E94C60041
:10298000DC01CB019E8F8D8F8D8D9E8D9A8F898FCF
:10299000898D9A8D0197F1F79A8F898F80E00E9437
:1029A0009E1586E00E949E1580E090E0A0E2B2E4D1
:1029B0008D8B9E8BAF8BB88F6D897E898F89988D1B
:1029C0002BEA3AEA4AEA50E40E949C02DC01CB017D
:1029D000898B9A8BAB8BBC8B69897A898B899C8913
:1029E00020E030E040E85FE30E94A20488231CF46A
:1029F00081E0888B91C069897A898B899C8920E0E4
:102A000030E04FE753E40E94420418160CF07BC0FC
:102A10006D897E898F89988D20E030E04AE754E403
:102A20000E949603DC01CB018C879D87AE87BF8710
:102A30006C857D858E859F8520E030E04AE755E4F2
:102A40000E949C02DC01CB0188879987AA87BB87FB
:102A5000688579858A859B8520E030E040E85FE3E2
:102A60000E94A20488232CF481E090E09F838E834F
:102A70003FC0688579858A859B8520E03FEF4FE7D9
:102A800057E40E94420418164CF56C857D858E85AE
:102A90009F8520E030E040E251E40E949C02DC018E
:102AA000CB01BC01CD010E94C600DC01CB019F839C
:102AB0008E830FC080E991E09D838C838C819D8102
:102AC0000197F1F79D838C838E819F8101979F836E
:102AD0008E838E819F81009769F724C068857985F0
:102AE0008A859B850E94C600DC01CB019F838E8373
:102AF0008E819F819B838A838A819B810197F1F7D5
:102B00009B838A830FC069897A898B899C890E94FB
:102B1000C600DC01CB01888B8889898389818A95ED
:102B2000F1F78983CC59DF4F0FB6F894DEBF0FBEA3
:102B3000CDBFCF91DF911F910F910895DF93CF9378
:102B40000F92CDB7DEB7898381E062E440E00E9456
:102B5000CE0A82E062E440E00E94CE0A8981881FAA
:102B60008827881F882F90E09070009731F087E0C9
:102B700061E441E00E94CE0A05C087E061E440E0E4
:102B80000E94CE0A8981882F90E080749070082E70
:102B9000892F000C881F990B000C881F991F009724
:102BA00031F086E061E441E00E94CE0A05C086E093
:102BB00061E440E00E94CE0A8981882F90E0807213
:102BC0009070959587959595879595958795959509
:102BD000879595958795009731F085E061E441E010
:102BE0000E94CE0A05C085E061E440E00E94CE0A62
:102BF0008981882F90E08071907095958795959543
:102C000087959595879595958795009731F084E000
:102C100061E441E00E94CE0A05C084E061E440E046
:102C20000E94CE0A0E949D188981882F90E08870AA
:102C3000907095958795959587959595879500972B
:102C400031F087E061E441E00E94CE0A05C087E0F0
:102C500061E440E00E94CE0A8981882F90E0847070
:102C600090709595879595958795009731F086E0BA
:102C700061E441E00E94CE0A05C086E061E440E0E4
:102C80000E94CE0A8981882F90E08270907095957D
:102C90008795009731F085E061E441E00E94CE0A1B
:102CA00005C085E061E440E00E94CE0A8981882F5A
:102CB00090E081709070882331F084E061E441E01D
:102CC0000E94CE0A05C084E061E440E00E94CE0A82
:102CD0000E949D180F90CF91DF910895DF93CF93BD
:102CE0000F92CDB7DEB7898381E062E441E00E94B4
:102CF000CE0A82E062E440E00E94CE0A8981881F09
:102D00008827881F882F90E09070009731F087E027
:102D100061E441E00E94CE0A05C087E061E440E042
:102D20000E94CE0A8981882F90E080749070082ECE
:102D3000892F000C881F990B000C881F991F009782
:102D400031F086E061E441E00E94CE0A05C086E0F1
:102D500061E440E00E94CE0A8981882F90E0807271
:102D60009070959587959595879595958795959567
:102D7000879595958795009731F085E061E441E06E
:102D80000E94CE0A05C085E061E440E00E94CE0AC0
:102D90008981882F90E080719070959587959595A1
:102DA00087959595879595958795009731F084E05F
:102DB00061E441E00E94CE0A05C084E061E440E0A5
:102DC0000E94CE0A0E949D188981882F90E0887009
:102DD000907095958795959587959595879500978A
:102DE00031F087E061E441E00E94CE0A05C087E04F
:102DF00061E440E00E94CE0A8981882F90E08470CF
:102E000090709595879595958795009731F086E018
:102E100061E441E00E94CE0A05C086E061E440E042
:102E20000E94CE0A8981882F90E0827090709595DB
:102E30008795009731F085E061E441E00E94CE0A79
:102E400005C085E061E440E00E94CE0A8981882FB8
:102E500090E081709070882331F084E061E441E07B
:102E60000E94CE0A05C084E061E440E00E94CE0AE0
:102E70000E949D180F90CF91DF910895DF93CF931B
:102E800000D0CDB7DEB79A8389830BC0E981FA8180
:102E9000208189819A8101969A838983822F0E9459
:102EA0006E16E981FA818081882381F70F900F9057
:102EB000CF91DF910895DF93CF9300D000D0CDB7AD
:102EC000DEB789836A835C834B838A81882321F4FC
:102ED00080E80E949E150BC08A81813021F480EC2D
:102EE0000E949E1504C080E690E00E943E178981F2
:102EF000803158F080E690E00E943E170DC084E1DA
:102F00000E949E1589818150898389818823B9F720
:102F10008B819C810E943E170F900F900F900F9015
:102F2000CF91DF9108950F931F93DF93CF93CDB788
:102F3000DEB7AC970FB6F894DEBF0FBECDBF69A762
:102F40007AA78BA79CA789A59AA5ABA5BCA5FE01CE
:102F50007596BC01CD0141E050E022E030E08F01E8
:102F60000E94D61B9E012B5E3F4FCE010196B901F8
:102F70000E94F71BCE0101960E943E17AC960FB639
:102F8000F894DEBF0FBECDBFCF91DF911F910F919F
:102F90000895DF93CF93CDB7DEB768970FB6F89457
:102FA000DEBF0FBECDBF81E00E949E1580E090E0A5
:102FB000A0E2B2E48D8B9E8BAF8BB88F6D897E893A
:102FC0008F89988D2BEA3AEA4AEA50E40E949C02E3
:102FD000DC01CB01898B9A8BAB8BBC8B69897A899D
:102FE0008B899C8920E030E040E85FE30E94A204E6
:102FF00088231CF481E0888B91C069897A898B8948
:103000009C8920E030E04FE753E40E944204181608
:103010000CF07BC06D897E898F89988D20E030E02F
:103020004AE754E40E949603DC01CB018C879D871C
:10303000AE87BF876C857D858E859F8520E030E0DB
:103040004AE755E40E949C02DC01CB0188879987FE
:10305000AA87BB87688579858A859B8520E030E0D3
:1030600040E85FE30E94A20488232CF481E090E012
:103070009F838E833FC0688579858A859B8520E004
:103080003FEF4FE757E40E94420418164CF56C8559
:103090007D858E859F8520E030E040E251E40E94EE
:1030A0009C02DC01CB01BC01CD010E94C600DC0109
:1030B000CB019F838E830FC080E991E09D838C8339
:1030C0008C819D810197F1F79D838C838E819F81F7
:1030D00001979F838E838E819F81009769F724C01B
:1030E000688579858A859B850E94C600DC01CB01B5
:1030F0009F838E838E819F819B838A838A819B811C
:103100000197F1F79B838A830FC069897A898B893C
:103110009C890E94C600DC01CB01888B8889898349
:1031200089818A95F1F7898368960FB6F894DEBF96
:103130000FBECDBFCF91DF910895DF93CF93CDB771
:10314000DEB768970FB6F894DEBF0FBECDBF83E041
:1031500062E441E00E94CE0A80E090E0A0E2B1E4A7
:103160008D8B9E8BAF8BB88F6D897E898F89988D63
:103170002BEA3AEA4AEA50E40E949C02DC01CB01C5
:10318000898B9A8BAB8BBC8B69897A898B899C895B
:1031900020E030E040E85FE30E94A20488231CF4B2
:1031A00081E0888B91C069897A898B899C8920E02C
:1031B00030E04FE753E40E94420418160CF07BC045
:1031C0006D897E898F89988D20E030E04AE754E44C
:1031D0000E949603DC01CB018C879D87AE87BF8759
:1031E0006C857D858E859F8520E030E04AE755E43B
:1031F0000E949C02DC01CB0188879987AA87BB8744
:10320000688579858A859B8520E030E040E85FE32A
:103210000E94A20488232CF481E090E09F838E8397
:103220003FC0688579858A859B8520E03FEF4FE721
:1032300057E40E94420418164CF56C857D858E85F6
:103240009F8520E030E040E251E40E949C02DC01D6
:10325000CB01BC01CD010E94C600DC01CB019F83E4
:103260008E830FC080E991E09D838C838C819D814A
:103270000197F1F79D838C838E819F8101979F83B6
:103280008E838E819F81009769F724C06885798538
:103290008A859B850E94C600DC01CB019F838E83BB
:1032A0008E819F819B838A838A819B810197F1F71D
:1032B0009B838A830FC069897A898B899C890E9444
:1032C000C600DC01CB01888B8889898389818A9536
:1032D000F1F7898383E062E440E00E94CE0A6896B9
:1032E0000FB6F894DEBF0FBECDBFCF91DF9108952A
:1032F000DF93CF93CDB7DEB780E063E441E00E9477
:10330000740981E063E441E00E94740982E063E4AF
:1033100041E00E94740983E063E441E00E94740983
:1033200084E063E442E00E94740985E063E442E0E3
:103330000E94740986E063E442E00E94740987E019
:1033400063E442E00E947409CF91DF910895DF9316
:10335000CF93CDB7DEB760970FB6F894DEBF0FBE40
:10336000CDBF80E063E441E00E94CE0A81E063E4E7
:1033700041E00E94CE0A82E063E441E00E94CE0A6E
:1033800083E063E441E00E94CE0A80E090E0A0E2A6
:10339000B1E48B879C87AD87BE876B857C858D85E7
:1033A0009E8520E030E04AE755E40E949C02DC0163
:1033B000CB018F839887A987BA876F8178858985A4
:1033C0009A8520E030E040E85FE30E94A204882371
:1033D0002CF481E090E09E838D833FC06F817885DF
:1033E00089859A8520E03FEF4FE757E40E94420429
:1033F00018164CF56B857C858D859E8520E030E028
:1034000040E251E40E949C02DC01CB01BC01CD01F1
:103410000E94C600DC01CB019E838D830FC080E932
:1034200091E09C838B838B819C810197F1F79C8336
:103430008B838D819E8101979E838D838D819E815B
:10344000009769F714C06F81788589859A850E94F5
:10345000C600DC01CB019E838D838D819E819A8382
:10346000898389819A810197F1F79A838983188AE0
:1034700039C0888963E440E00E94CE0A84E08F87E7
:1034800026C08F8563E40E94D60D8823E9F48889DD
:10349000482F50E08F85882F90E09C0124503040C9
:1034A000CA01880F991F880F991F820F931FFC0173
:1034B000E058FF4F808160960FB6F894DEBF0FBED4
:1034C000CDBFCF91DF9108958F858F5F8F878F85D7
:1034D0008830B8F2888963E441E00E94CE0A888986
:1034E0008F5F888B8889843020F2C1CFDF93CF93A0
:1034F00000D0CDB7DEB789836A8389816A8140E0D5
:103500000E9474090F900F90CF91DF910895DF937F
:10351000CF9300D000D0CDB7DEB789836A835C83B8
:103520004B832B813C8189816A81A9010E941C0DFA
:103530000F900F900F900F90CF91DF910895DF9330
:10354000CF93CDB7DEB7AFE5B0E0EFE5F0E0808137
:1035500080688C9382E463E00E9446110E945007C9
:1035600080E49BE10E94EB07CF91DF910895DF9308
:10357000CF93CDB7DEB72E970FB6F894DEBF0FBE50
:10358000CDBF809191008F5F8093910080E090E0AB
:10359000AAE7B4E48B879C87AD87BE876B857C8563
:1035A0008D859E8520E030E04AE755E40E949C022C
:1035B000DC01CB018F839887A987BA876F817885D3
:1035C00089859A8520E030E040E85FE30E94A2040C
:1035D00088232CF481E090E09E838D833FC06F812F
:1035E000788589859A8520E03FEF4FE757E40E9470
:1035F000420418164CF56B857C858D859E8520E0F0
:1036000030E040E251E40E949C02DC01CB01BC01AD
:10361000CD010E94C600DC01CB019E838D830FC0CB
:1036200080E991E09C838B838B819C810197F1F7EA
:103630009C838B838D819E8101979E838D838D8159
:103640009E81009769F714C06F81788589859A8576
:103650000E94C600DC01CB019E838D838D819E81FB
:103660009A83898389819A810197F1F79A83898363
:10367000809191008B3009F084CF1092910081CF1E
:10368000DF93CF9300D00F92CDB7DEB789836A83E3
:103690004B83909190008981981728F48A816B81DF
:1036A0000E94681109C0909190008981981720F0BC
:1036B0008A816B810E94571180919000843611F4A9
:1036C000109290000F900F900F90CF91DF9108957E
:1036D000DF93CF93CDB7DEB70E94891120E730E0AA
:1036E00085E090E060E070E0A9010E945B17F6CFF2
:1036F00097FB092E07260AD077FD04D00CD006D000
:1037000000201AF4709561957F4F0895F6F7909513
:1037100081959F4F0895AA1BBB1B51E107C0AA1FAB
:10372000BB1FA617B70710F0A61BB70B881F991F62
:103730005A95A9F780959095BC01CD0108952F92D7
:103740003F924F925F926F927F928F929F92AF9231
:10375000BF92CF92DF92EF92FF920F931F93CF937E
:10376000DF93CDB7DEB7CA1BDB0B0FB6F894DEBF15
:103770000FBECDBF09942A88398848885F846E843B
:103780007D848C849B84AA84B984C884DF80EE8085
:10379000FD800C811B81AA81B981CE0FD11D0FB68E
:1037A000F894DEBF0FBECDBFED010895EF92FF92FA
:1037B0000F931F93F22FF02E47FD02C0E4E001C0EB
:1037C000E4E1242F332727FD309537FF03C03095E0
:1037D00021953F4F4F2D512F0F2FEE2E0E94FE1B94
:1037E0008F2D912F1F910F91FF90EF900895FB0166
:1037F000DC0101900D920020E1F70895A9E0B0E00E
:10380000E4E0FCE10C94A31B6A01122FA02EBE2C55
:103810002BE3201718F42CE3922E02C0902E9394E1
:10382000AE014F5F5F4F27E0092D0E94601DBC0174
:103830008981E82EFF24C70189709070019711F4E7
:10384000ADE209C0B1FE02C0ABE205C0B0FC02C0EF
:10385000A0E001C0A0E2E3FE3BC0AA2311F423E0F4
:1038600001C024E0211710F020E002C0121B212F1C
:10387000EB2CB4FE02C0322F0AC0F601322F80E2D8
:1038800002C0819331503323E1F7C20ED11CAA2329
:1038900019F0F601A1936F01F6013196E2FE05C021
:1038A0009EE4D6019C9381E404C09EE6D6019C93DD
:1038B00081E611968C9391833296DF01832F90E2FB
:1038C00002C09D9381508823E1F7E30FF11D40C0B2
:1038D000E2FE42C0AA2311F423E001C024E0211734
:1038E00010F020E002C0121B212FEB2CB4FE02C00E
:1038F000922F0AC0F601922F80E202C0819391506C
:103900009923E1F7C20ED11CAA2319F0F601A19365
:103910006F01F6013196E2FE08C089E4D6018C936E
:103920008EE411968C9386E407C089E6D6018C93C9
:103930008EE611968C9386E681833296DF01892F7D
:1039400020E202C02D9381508823E1F7E90FF11D99
:1039500010822EEF3FEFAFC0161617061CF041E0A5
:1039600050E003C0AB014F5F5F4FAA2019F480E025
:1039700090E003C08A2D90E0019620E030E0AA2379
:1039800011F021E030E0240F351F280F391F812F5F
:1039900090E02817390714F020E002C0121B212FF5
:1039A0004B2D50E0CA0180719070B4FC0DC0B3FC87
:1039B0000BC0F601322F40E202C041933150332355
:1039C000E1F7C20ED11C01C0322FAA2319F0F60173
:1039D000A1936F01892B11F0132F0AC0F601132F49
:1039E00080E302C0819311501123E1F7C30ED11C73
:1039F000092D060FBA8090E1892E912C8E209F20F0
:103A0000E4FE04C0F1E3BF1609F40150101614F0EF
:103A100001E003C0093008F008E09B0177FF02C015
:103A200020E030E0CB010196821B930BFE01319622
:103A3000E80FF91F8EE2F82E3B01601A71088A2DFB
:103A400090E044275527481B590B8FEF2F3F38072D
:103A500019F4D601FD926D01621773072CF06216FE
:103A6000730614F4808101C080E321503040319608
:103A70002417350724F0D6018D936D01E6CF261764
:103A8000370749F4B5E3BB1528F0BB1621F48114C0
:103A9000910409F481E3F6018193D601812F90E22C
:103AA00002C09C93815011968823D9F7E10FF11D34
:103AB000108220E030E0C9012996EEE00C94BF1B93
:103AC000283008F027E03327DA01990F311D87FDF0
:103AD000916000966105710539F432602E5F3D9367
:103AE00030E32A95E1F708959F3F30F08038710563
:103AF000610509F03C5F3C5F3D93913008F08068C0
:103B0000911DDF93CF931F930F93FF92EF92192F85
:103B1000987F9695E92F96959695E90FFF27E255A0
:103B2000FF4F99273327EE24FF24A701E7010590D3
:103B30000894079428F4360FE71EF81E491F511DFC
:103B4000660F771F881F991F0694A1F705900794A9
:103B500028F4E70EF81E491F561FC11D770F881F56
:103B6000991F661F0694A1F70590079428F4F80E94
:103B7000491F561FC71FD11D880F991F661F771F2A
:103B80000694A1F70590079420F4490F561FC71F0C
:103B9000D81F990F661F771F881F0694A9F7849175
:103BA0001095177041F0D695C79557954795F7949E
:103BB000E7941A95C1F7E4E5F0E068941590159143
:103BC00035916591959105907FE27395E118F10A21
:103BD000430B560BC90BD009C0F7E10CF11E431F74
:103BE000561FC91FD01D7EF4703311F48A95E6CF9D
:103BF000E894015030F0080F0AF40027021708F487
:103C0000202F2395022F7A3328F079E37D932A958C
:103C1000E9F710C07D932A9589F6069497956795E4
:103C2000379517951794E118F10A430B560BC90BFA
:103C3000D00998F023957E9173957A3308F070E35C
:103C40007C932013B8F77E9170617D9330F083955B
:103C500071E37D9370E32A95E1F71124EF90FF90D3
:103C60000F911F91CF91DF91992787FD909508952E
:043C7000F894FFCFF6
:103C74004552524F525F4F55545F52414E47450093
:103C84004C6F7665207520000000000000000000E5
:103C94003738392F3435362A3132332D43303D2BE2
:00000001FF
